:10000000F02B0020192900001529000015290000F7
:1000100000000000000000000000000000000000E0
:100020000000000000000000000000001529000092
:100030000000000000000000152900001529000044
:10004000152900001529000015290000890E00005F
:10005000152900001529000015290000711F000056
:100060001529000015290000152900001529000098
:100070001529000015290000152900001529000088
:100080001529000015290000152900001529000078
:100090001529000015290000152900001529000068
:1000A0001529000015290000152900001529000058
:1000B00010B5064C2378002B07D1054B002B02D03E
:1000C000044800E000BF0123237010BD0C01002094
:1000D0000000000020340000084B10B5002B03D0B6
:1000E0000749084800E000BF07480368002B00D11B
:1000F00010BD064B002BFBD09847F9E7000000002D
:100100001001002020340000203400000000000016
:10011000EFF3108072B6BFF35F8F0022024B1A70AC
:10012000434258417047C04604010020024A1378F8
:10013000013BDBB21370704733010020044A13788F
:10014000013BDBB2137013780022024B1A70704728
:10015000340100202A010020002070470020704751
:100160000020A12210B50E4B0E4C0F4920701880B4
:100170000E4B08711A70813A5A701E3A5880988056
:10018000DA801881E1235B020B60082348718B71D0
:10019000074B9847237801200133DBB2237010BD51
:1001A000C2030020330100202C010020540600204F
:1001B0005130000010B502490020024B984710BD95
:1001C0002C01002051300000002805D00122034BF3
:1001D0001A70BFF35F8F62B67047C04604010020FB
:1001E0006021124B1A7850B20A4000280DDA002024
:1001F000202A13D15A78212A10D1DA88072A0DD162
:100200000B499A819960012008E00020202A05D13D
:100210005A78202A03D0223A504250417047DA8857
:10022000072AFBD103491961EAE7C04660090020AB
:100230002C010020B5010000F7B5364B1B78002BD0
:1002400023D1354B9847354E354B3488002800D0A4
:10025000344B9847844218D0334B9847334B344A39
:100260001C780700E4B263009B5A002B16D1314D75
:100270002B8801332B80284B9847002806D12B88E8
:10028000632B03D838002C4B9847F7BD224B984777
:10029000002803D0294B2A889A42F3D90022254B03
:1002A0001A80274B1B7893422DD1634263411F4A2A
:1002B000DBB213700123174A380013701E4B9847A6
:1002C0001B4B6700DB5B1D00413DFF3D6A1E9541F6
:1002D000A022EDB25200934219D00F4B9847114B18
:1002E000002800D10E4B98473080A0225200544382
:1002F00014490F4B144ADB5B12190091134C29006F
:100300008120A047C1E762425441E4B2D2E7002312
:100310003380EAE750060020E51400004E06002076
:10032000E9140000F9140000110100004C0600203F
:100330004806002028010020C90100001F0300001A
:10034000C40300205D030000C803002079170000EB
:1003500010B5014B984710BD3902000010B50028B8
:100360000CD1074B1B785A425341064A5B00985206
:10037000054B1870054B1870054B984710BDC046CB
:100380004C06002048060020C40300205006002030
:100390003902000010B5074B9847074B07491A88E8
:1003A000074B1B785B005C5A064BA41A9847200049
:1003B00010BDC04611010000BE030020B80300209C
:1003C000BC030020C901000010B5034B9847431E31
:1003D0009841C0B210BDC04695030000F7B5184B58
:1003E00098471849184A0C781578E4B2EDB2002DF8
:1003F00008D16700BC46154B154F1E886346DF5B6E
:10040000B74203D9134B98470020FEBD0F4B1D8008
:10041000634263410126DBB20B700E4B16709847A6
:1004200028000D4B9847A0235B005C430B4A31002A
:1004300014190B4A0220009222000A4CA047E4E75C
:1004400011010000BC030020C0030020BE030020F7
:10045000B8030020C9010000C903000038010020D2
:10046000ED0400007917000070B50024124B134D05
:100470002C701C70124B1C70124B1C70124B1C8089
:100480005C80124B1C80124B9847124B1C70124B15
:100490001C70124B1C80124B1C80124B9847A042C0
:1004A00009D02B780133DBB22B702B78DBB2012B18
:1004B00001D10D4A137070BD500600203401002098
:1004C000C40300204C060020480600204E060020F1
:1004D00039020000C0030020BC030020B803002044
:1004E000BE030020DD0300002A01002013B5030035
:1004F0001000002B10D10D4A127854426241D2B242
:1005000000290AD14133FF335A430949094C8A185B
:10051000094900910121A04713BD0848520011521A
:10052000074A1370074B9847F6E7C046BC03002004
:100530003801002079170000ED040000B803002006
:10054000C0030020DD03000010B50020014B9847D8
:1005500010BDC046C9030000F7B5194B00269B79B2
:10056000093B5A425341DBB20193164B9847164B55
:10057000164F3C881D78164B9847EDB2154B6A0014
:10058000D35AA4B2A34207D8134B1B78DBB2002B7B
:10059000EBD11E003000FEBDA0235B005D430F4B7E
:1005A0005D192B5D01341E43A4B20D4B3C8098476E
:1005B000019B002BEED0002336020193D5E7C04605
:1005C0002C01002011010000BC030020BE0300200C
:1005D000C9010000B80300202A01002038010020D2
:1005E000DD03000070B5114B98471149114A0B7893
:1005F000DBB25C00A45AA022520094420FD10E4AF2
:100600001278002A0BD10D4D2A78D2B2002A06D1D9
:1006100001242C705C4263411400DBB20B70084B68
:100620009847A0204000001B70BDC046110100008B
:100630004C0600204806002050060020C40300207D
:10064000C901000010B5034B9847431E9841C0B242
:1006500010BDC046E505000010B50020014B9847CD
:1006600010BDC04645060000F8B5154B0D009C793D
:10067000093C63425C41E4B20020124B98470028D9
:1006800005D1114B1878C0B20028F5D1F8BD0F4B39
:1006900098470F4B0F4A1B78DBB25F00B95A4E1CCC
:1006A000BE52A022520053430B4AD3185D540B4B49
:1006B0009847002C02D02D120024DDE70120E5E749
:1006C0002C010020450600002A0100201101000035
:1006D0004C06002048060020C8030020C901000085
:1006E00010B50100014B0020984710BD69060000BD
:1006F00010B5034B58887F231840024B984710BD14
:1007000060090020F1180000F0B5164B1B78002B93
:1007100001D10020F0BD144B1B681B681A7982427E
:10072000F7D9124C01262360DA789D7812022A4309
:1007300000259A189A4203D8002DEAD02360E8E7F2
:100740005F78042F0AD19F78874207D1DF788F42E4
:1007500004D1002D00D023600120DBE71D785B1958
:100760003500E7E7630600206406002068060020E5
:10077000094B1B681B68DA78997812020A439B18A8
:1007800002788018984201D3002004E04278042ABD
:10079000FAD0052AF4D170476406002070B5104BDA
:1007A00005009847002801D1002070BD0D4B1C6842
:1007B00020000D4B9847041E0AD04279037912029B
:1007C0001A43C178094B807898470028F0D1EBE7AD
:1007D000074BAD001B685B68EB581B689847E4E764
:1007E0000907000068060020710700005D15000081
:1007F0006406002070B50021104D0400A8470028B1
:1008000002D10025280070BD0D4BA2001B685B685B
:10081000D658F368984701002000A847051EF0D07D
:10082000084B1C682000084B9847041E03D08078B2
:10083000064B9847F6E773689847E3E70907000017
:1008400064060020680600207107000009150000FA
:1008500010B5014B984710BDBD19000070B50B4D88
:1008600000242B78002B0AD1002301222B70084B87
:100870001A8070BD2000074B98470134E4B2064B44
:100880001B681B681B79A342F4D8EDE763060020C0
:100890005E060020F50700006406002010B5024B3C
:1008A0009847024B984710BD251A00005D080000CC
:1008B00010B50B4B00241B78002B09D110BD5B68D1
:1008C000A200D3581B69002B00D098470134E4B232
:1008D000044B1B681A681279A242F0D8EEE7C046B2
:1008E0006306002064060020F8B50023AA4CA3810B
:1008F00023616361237858B2002805DAE288002A70
:1009000002D100252800F8BD6021194020D11F2206
:10091000002800DBCCE0E588002D19D0134000D082
:100920008CE06378062B0CD0082B00D17FE0002BE5
:100930000ED1022D12D129009848994B98470125D4
:10094000E0E76088050A022D3DD029D8012D34D07A
:100950001F2223781340012B00D166E11F22237848
:100960001340022BCDD18F4B00241B78002BC8D015
:100970008D4B1B681A681279A242C2D95B68A2002B
:10098000D558EB689847894B01002000984700280C
:10099000B7D0AB6898470028D1D10134E4B2E7E77B
:1009A000032D27D00F2DD3D1814B98680028D5D0A7
:1009B000C17883780902194302E07D4B18680178F9
:1009C000774B984710E07A4BC0B21A68527C82424B
:1009D000C4D95B68C000C058C17883780902194344
:1009E0006F4B9847A3685D70E388A2899A42A6D9A5
:1009F000A381A4E7C0B20328AAD802F03FFB1500E8
:100A00003B0104003E0109216A4A00236A485D0057
:100A1000D65C451901336E80DDB2A942F7D8490092
:100A20000231017089B2CBE704216448C8E7012D87
:100A300094D129005B485A4B984763E7012B22D198
:100A400063780A2B84D1012D00D0EEE0554B1B7842
:100A5000002B00D1E9E0544B26791F683B681B79D5
:100A6000B34200D8E1E03000504B9847051E00D15A
:100A70006EE77B68B600F358DB689847504B01215E
:100A800018701800D7E7022B00D061E76378002BBD
:100A900000D05DE7022D00D060E74A4B20799847EF
:100AA000494B2900188018003D4B9847013D29E724
:100AB000134053D160780138082800D948E702F084
:100AC000D3FA100047FF47FF47FF090047FF47FFE2
:100AD00047FF1E00E388002B00D03FE73B4B23611C
:100AE0002DE7E388002B00D038E76588012D00D082
:100AF00034E70221294A13888B43138002E7E588F3
:100B0000002D00D02AE7324B9847002800D11FE77C
:100B1000274FA2783B685B7C9A4200DD18E72D4B9B
:100B20009847A3781F4A1370002B00D107E72A4A81
:100B30001D4E9B187A68DB00D318336033681B683E
:100B40001B79AB4200D8FAE600212800234B9847D6
:100B5000002800D1FCE60135EDB2EFE7012B41D1D1
:100B600063780B2B00D0F3E6E388002B5DD10D4BAF
:100B70001B78002B59D02679194B3000658898478F
:100B8000002800D1E4E6E9B23000144B9847002871
:100B900000D0D4E6DCE6C046600900205E060020F6
:100BA00011190000630600206406002009070000F8
:100BB000840000207A000020280000205C00002033
:100BC000620600202916000060060020F1060000E1
:100BD000011900005D080000FFFFFF1F9D070000D6
:100BE000F5070000022B00D0B2E66378012B10D08D
:100BF000032B00D0ACE6E388002B00D0AEE6638880
:100C0000002B00D0AAE620791D4B984720791D4B78
:100C100009E0E388002B00D0A0E66388002B00D019
:100C20009CE62079184B9847B1E7184B1B78002BAE
:100C300000D193E6164B25791E6833681B79AB42C9
:100C400000D88BE600212800124FB847002800D1B9
:100C500084E67368AA00D658F36898470100280014
:100C6000B847002800D179E6B3689847002800D03B
:100C700065E673E61921084AC7E60421074AC4E677
:100C8000A91400003D1600003D1700006306002077
:100C9000640600200907000060000020E633000021
:100CA0000368987AC0097047082270B504000B4B9E
:100CB0000568DA6720000A4EB0470028FAD1022200
:100CC0002B8893432B80207560752000B047002847
:100CD000FBD101232A8813432B8070BD04E100E07F
:100CE000A10C0000F8B507000E00140005683800DC
:100CF0000F4B98470028FAD13A79002A0BD01A23D3
:100D0000012A06D11723012C03D803000634A400BE
:100D100066511800F8BD1723022CFAD805498E42F7
:100D2000F7D80C34B6B2640066531300F1E7C0463E
:100D3000A10C0000FFFF00002023F7B515002C4A8E
:100D40000160916904000B439361022301A90B70B8
:100D50000420284B98470420274B9847274B200016
:100D60009847AB7823712B796371254B1C602B88D6
:100D700026683380AB78002B1FD01720012B1BD1A6
:100D800033889BB23380EB78002B03D080233288EA
:100D90001343338020001B4B9847021EFAD1A968E9
:100DA0002000194B984700202B79834204D08023E0
:100DB0007288DB0113437380FEBD04233288172041
:100DC00013433380EB78002BF6D120000D4B98476E
:100DD000021EFAD1A96820000B4FB8472000094B2A
:100DE00098470028FAD10122E9682000B847DAE7DD
:100DF00000040040E927000035280000A90C00008D
:100E000034070020A10C0000E50C000070B5037948
:100E100004000D001520002B06D126682000034B8E
:100E200098470028FAD1B58270BDC046A10C0000D9
:100E3000022A07D00379002B0FD0012B0FD11633D4
:100E4000012A0DD8931C9B00195001239340017D6A
:100E50000B43DBB20375002302E0022AF2D9172309
:100E60001800704710B502688023022903D00123BF
:100E700003248B402340D37101238B40427D1343D5
:100E8000DBB2437510BD000070B5114B1B68597D76
:100E90001C681A7D207A0A40E179014048B2002896
:100EA00006DA520701D51B6998478023237270BD6B
:100EB0000125294205D02A4201D09B689847257216
:100EC000F5E702252942F2D02A42F8D0DB68F5E79F
:100ED00034070020EFF3108072B6BFF35F8F00225B
:100EE000024B1A70434258417047C046040100202B
:100EF0000F2303405B00C009181814230238434332
:100F00000148C0187047C04674060020F0B58D79BE
:100F100085B06AB20E00544B2800002A48DA0F2729
:100F200098472F400197038A816802937688C368A7
:100F30000400F618C660877C8E4225D08D1B4B4B73
:100F4000ADB29D4206D918000299494B9847474BCC
:100F50005D1AADB20021BB0707D5464B02992800A8
:100F600098478BB259425941C9B20222A37C490029
:100F7000934319432B006268A174921901993E486A
:100F80003E4CA04705B0F0BD02233800184005D004
:100F900062689F43A77492190023EFE701239F43E0
:100FA0002368A774002BEDD02A0031009847E9E7A9
:100FB00098470F232B400293038A04000193837CFC
:100FC00037885B0711D5C26843689446634403932E
:100FD0000199284B80689847029B0A00013B2849E9
:100FE0009B0159180398274B9847E368FA18A368A0
:100FF000E2609A4200D9E360B288BA4227D1E6683B
:10100000B34224D09D1B194FADB20199BD4216D9F0
:10101000174B380098477B1A019A9BB216481A4F13
:101020009A4211D90423A27C1343A374029B5A1E33
:10103000134B9201D218019B0299B847A2E70D4BBE
:10104000280098476B1AE7E762689219F4E70122D3
:10105000A37C9343A3742368002B00D192E72A005A
:10106000E1680020A2E7C046F10E0000FF1F00006B
:10107000713300009D310000F8070020991E000028
:1010800038070020C5330000E51E0000052210B51A
:10109000054B064C1A7020008021054B9847002113
:1010A0002000044B984710BD72060020F80700206E
:1010B0001F1E0000391E000037B504001D4B984765
:1010C0008023226801AD937228001B4B98470323AD
:1010D00029006B702000194B984719492000194BC3
:1010E0009847194D194B022200212000A8470022E1
:1010F000174B11002000A847164B012200212000A9
:10110000A847154D022200212000A84700222000F8
:101110001100A847012200212000A84721680F4A9A
:101120000B891A408023DB00134300220B810C4BF8
:101130001A7037BD5D080000351C0000451C00001A
:10114000780900202D1F0000CD1A0000C9120000F0
:1011500069160000A11100001D1B0000FFF3FFFF36
:1011600072060020032210B5074B084C1A7008497C
:101170002000084B98470023074A19009268200076
:10118000064CA04710BDC04672060020F80700209C
:10119000780900202D1F000060090020991E000022
:1011A00010B589790C4B4AB2002A0BDA1B78012B57
:1011B00002D10A4B984710BD042BFCD10848094BBB
:1011C0009847F8E71A78022A02D102321A70F2E739
:1011D000032AF0D1F2E7C046720600206511000034
:1011E000F80700201F1E000070B51D4D1D4E2B88F6
:1011F000B489E41AA4B2002C1BD11B4A11885B18D5
:101200009BB21380F2889A4203D0184B1B78002BB4
:1012100007D00422164B17491A701748174B9847E6
:1012200070BD7369002B16D09847002813D02C800E
:10123000B4893F2C0FD9002240240C4B1A702B8804
:10124000B2680021D2180C4823000D4EB0472B88FD
:10125000E4182C80E4E70122044B1A70EFE7C04643
:101260006E06002060090020700600206C06002039
:101270007206002078090020F80700202D1F0000CA
:10128000991E000010B5014B984710BDB108000031
:101290000122034B1A70BFF35F8F62B67047C046DE
:1012A00004010020074B9A8C920605D4D021DA68FD
:1012B0000A40D02AFBD170471022D9681142FCD0D5
:1012C000F9E7C0460008004070B5274E0C0033789F
:1012D000002B06D0254B1B69002B00D0984700231C
:1012E00033702388082B02D0214B984770BD214CC6
:1012F0001E4D23782B7063786B70E278A37812020E
:101300009B186B806279237912029B18AB80E2797B
:10131000A37912029B18EB80174B98470028E3D063
:101320002B787F2B0DD90021144B22001980144BF0
:10133000144819800223144C33703E33A047134BDA
:10134000D3E7EB88002B01D1114BCEE700210B4BEB
:10135000220019800A4B0C4C198001230948337074
:101360003F33A047C2E7C046720600206009002054
:101370008D10000078090020E908000070060020A8
:101380006E060020F8070020E51E0000E9110000AD
:10139000651100000023F7B501AC237003336370BF
:1013A000013BA370013BE370104B05001E788642A1
:1013B0001BD000280AD00E4B275C98470D4AD35DFE
:1013C0000133D355002801D00B4B9847002E0AD08B
:1013D000074BA45D9847074A135D013B135500284E
:1013E00001D0054B9847014B1D70F7BDEC0600205E
:1013F000D50E00002C0700209112000070B5084C9B
:10140000084D06212000A84704212000A8470221FA
:101410002000054B98470220044B984770BDC046FA
:10142000F8070020B11A0000911A0000951300007F
:1014300070B50B4B98470B4C0B4B02212000984783
:101440000A4D04212000A847094A0A4B0621200022
:10145000984706212000A8470320074B984770BDF6
:10146000A5120000F8070020B11A0000911A000030
:10147000FD1300006D1A00009513000010B5064C16
:1014800004212000054B984702212000044B984777
:101490000120044B984710BDF8070020B11A000046
:1014A000911A00009513000070B5040001000A4B6A
:1014B0000A4898470A4B200098470300827C012085
:1014C000024207D01D6882439A74002D02D0220088
:1014D000D968A84770BDC046D51D0000F807002098
:1014E000F10E000000207047024B1B68188A800430
:1014F000400D7047F8070020024B1B68188A80B225
:101500007047C046F8070020F7B50400002701AD7A
:1015100028000C4B984720000B4B98470B4E290096
:1015200030000B4BEF702C7098470F213A00214090
:101530003000084B98473A0030002100064B98478E
:10154000F7BDC046351C0000A9140000F8070020B4
:10155000451C0000F51A0000A91B0000F7B50600A5
:1015600001AC294B20000F0015009847267000237E
:10157000082D10D90123102D0DD90223202D0AD9B1
:101580000323402D07D90423802D04D980235B0039
:101590009D4224D8FB3B637030001C4B98470323CB
:1015A00005821F40012F28D1013B194DE370210016
:1015B0002800184B9847041E1BD10F21164B020020
:1015C00031402800154FB84722003100144C280044
:1015D000A047012231002800A04701200AE0802313
:1015E0009B009D4202D8FB3BFF3BD4E70D4B9D4245
:1015F00001D90020FEBD0723CDE7022FD5D0032F50
:10160000F7D10423D1E7C046351C0000F10E0000DD
:10161000F8070020451C00000D0F0000CD1A000047
:101620001D1B0000FF03000010B50100014B024824
:10163000984710BD011E0000F80700200F2310B5C9
:10164000034004000020032B07D821000348044B6B
:1016500098472000034B9847012010BDF807002051
:101660001F1E0000A9140000F8B5294F3B78012B7C
:1016700041D1284A284D0E881488AB89A21993427B
:1016800001DA1E1BB6B2AB68320018192349244B8D
:10169000A4199847A3B21F4C2380402E05D1214E98
:1016A000E9883288D21891420FDCAB816B69002B3C
:1016B00008D09847002805D1052300203B701A4B1D
:1016C0009847F8BD194B9847FBE7AA899A420BD176
:1016D0006B69002BF0D098470028EDD03388228822
:1016E0009B1833800023238040230C4A0021104C98
:1016F0001048A047E5E7022B01D10F4BE3E7064B6B
:101700001B69002B00D0984700233B70D9E7C046E7
:10171000720600206E060020600900207809002073
:10172000C5330000700600203D1600006511000062
:10173000E51E0000F8070020E91100000F2370B536
:10174000034006000024032B0ED8084B98470500E1
:10175000074B310007489847AB7C0134234203D044
:10176000A343AB742B689847200070BDF10E0000B6
:10177000391E0000F8070020F0B585B003921E0066
:1017800002000F231A4002900D000192032A03D990
:101790000027380005B0F0BD02984A4B9847071E55
:1017A000F6D1494B029898470400484B98470123CB
:1017B000A27C1A4204D00028EAD0454B9847E8E7BB
:1017C0001343A374002801D0414B9847039B022286
:1017D00063600023E3600A9BA660236001231D4031
:1017E0006900A57C95430D4304218D436946097A20
:1017F000A57449B200293BDAEDB2002E26D0354B54
:10180000B6B29E4206D91800218A334B9847314B15
:101810005E1AB6B2AB0707D5218A30002F4B984726
:1018200089B248424841C7B20120022338404100F2
:10183000A07C98430843A0743300039A0199284878
:10184000284CA04743425841C7B2A2E7154202D0F4
:101850009543A574F0E79D43A5740A9B002B01D125
:10186000012796E70021029A08000A9B9847F7E7AC
:10187000002E22D0278A174DB6B23900AE4216D9B3
:10188000154B280098476B1A9BB21548164D039AC2
:10189000BB4209D20423A27C1343A374019B5A1EAA
:1018A000124B9201D2183B000199A847CAE73000B9
:1018B0000A4B9847761AB3B2E7E7A27C9A43A27420
:1018C000CBE7C04629160000F10E0000D50E00003F
:1018D00091120000FF1F0000713300009D310000D5
:1018E000F8070020991E0000E51E000038070020C0
:1018F0008022024B10431B6898727047F807002043
:10190000024B1B68987A4006400E7047F80700208B
:10191000014B98609981704760090020012010B543
:10192000034B1A68138903431381024B984710BD78
:10193000F807002095130000F8B501270320164B87
:101940009847164C164E2268042113892000BB4389
:101950001381144AB047144A00212000B0473900CF
:10196000124A2000B047124A02212000B047114D10
:1019700004212000A84700212000A84739002000AA
:10198000A84702212000A8470B4A06212000B047A3
:1019900006212000A847F8BD95130000F807002095
:1019A0006D1A00007D14000085120000B9100000BF
:1019B00031140000911A0000FD13000073B50F4BA5
:1019C000984701AC06000E4B2000984700230D4DB0
:1019D00022000D49A37028000C4B984728000C4B9F
:1019E00098470C4B98470C4B012098470B4B984756
:1019F000002E01D00A4B984773BDC046D50E00009B
:101A00007D210000F8070020005000418D210000DA
:101A10005D1F0000A5120000951300003919000099
:101A20009112000010B5074B98470020064B9847CD
:101A3000064B9847064B04009847002C01D0054BF5
:101A4000984710BD1D19000095130000D50E000029
:101A5000591A000091120000034B1A78002A01D095
:101A600000221A707047C046ED0600200B002E338E
:101A70009B0010B51A50AA22044C52004900835A08
:101A8000095B0B438352002010BDC046EC330000BD
:101A9000064B4900CB5AAB21026849009383425A56
:101AA0001A4342520268002013837047EC3300004F
:101AB000054B4900CA5AAB214900435A934343524C
:101AC000036800209A827047EC33000010B58C0048
:101AD000A4183434A4000419401859300449636030
:101AE000FF3003788A5C13430370002010BDC046AA
:101AF000FA3300008B009B18343310B59B000400B0
:101B0000C3180020641858605934034BFF349A5CA2
:101B100023789343237010BDFA3300000F2370B570
:101B20000B40C41861341F4EFF342578B65C354332
:101B30002570002A0FD10268002B03D1FF32033336
:101B4000937221E05B01D21849B2FF3202230029CF
:101B5000F6DB0123F4E7012A0ED10268002B02D143
:101B6000FF320C33ECE75B01D21849B2FF32082395
:101B70000029E5DB0423E3E7022A07D102685B01C1
:101B8000D3181022FF339A72002070BD032AFBD1B4
:101B900002685B01D21849B2FF3240230029CFDB33
:101BA0002023CDE7FA3300000F2370B50B40C41893
:101BB0001F4D6134FF34AE5C2578B5432570002A93
:101BC0000FD10268002B03D1FF320333537221E09F
:101BD0005B01D21849B2FF3202230029F6DB012350
:101BE000F4E7012A0ED10268002B02D1FF320C3338
:101BF000ECE75B01D21849B2FF3208230029E5DB8C
:101C00000423E3E7022A07D102685B01D3181022FC
:101C1000FF335A72002070BD032AFBD102685B01BA
:101C2000D21849B2FF3240230029CFDB2023CDE771
:101C3000FA33000000230370437083700133C370D4
:101C4000704700000F23F0B504000D78C8782B40D2
:101C50006DB2042860D8226801F0FCF903084987B6
:101C60009D00002008335B01D054F0BD5E01921945
:101C7000FF3255781C206D07F7D1702557782F4219
:101C8000F3D10B385070226808335B01D2182F3023
:101C900050712268D31880221A718A784B4B002A1F
:101CA0001BD080209A19546800060443546054697C
:101CB0002043506107254A789B195868444C2A40B4
:101CC000120720401043586049785A692940090793
:101CD00022400A435A610020C7E79819426852001F
:101CE000520842604269520052084261E2E75801DC
:101CF0001218FF32002D27DA702657781C20374241
:101D0000B3D1567804303043507018002268083040
:101D100040011218802010710724ED0F5B002B4A40
:101D20005B1948781B01D3185A682040284C0007DB
:101D3000224002435A608878002842D080225968A5
:101D400012060A435A60C6E756781C20760700D070
:101D50008BE756781A3830435070180022680830E4
:101D60004001121840205071D6E758011218FF3276
:101D7000002D08DA702657781C20374200D074E70F
:101D800056781430BFE756781C20760700D06CE7F1
:101D900056781938DFE758011218FF32002D08DA9B
:101DA000702657781C20374200D05EE756782430E2
:101DB000A9E756781C20760700D056E756781838E1
:101DC000C9E75A68520052085A604EE7B809002025
:101DD000FFFFFF8F0F230B40026808335B0149B2FE
:101DE000D218002906DA802111710268D318022264
:101DF000DA717047402151710268D3180122F7E768
:101E00000F230B40006808335B01C31849B298796F
:101E1000002902DA8006C00F7047C006FBE70F23D7
:101E20000B40006808335B0149B2C3182022002927
:101E300000DB10225A7170470F2330B50B40026847
:101E40005C011219FF3249B2D579002912DA20213A
:101E50000D420ED05171026849181219FF32147ADE
:101E60000C4206D01172026808335B01D3180222BB
:101E70001A7130BD10210D42FBD051710268491812
:101E80001219FF32147A0C42F3D01172026808332F
:101E90005B01D3180122EBE770B50C00056808342C
:101EA0006401655D1C266D066D0F14D04D010B4954
:101EB0009B0449190D000A614A69094900260A4034
:101EC0006A616A69990C930B9B030B436B6103680E
:101ED0001C1980236371300070BDC046B809002012
:101EE000FF3F00F070B50C00056808346401655DC3
:101EF0001C266D0713D00B4D49014A519B046918EC
:101F00004A681D09084B002613402B434B604B6861
:101F10009B0B9B034B6003681C194023237130000B
:101F200070BDC046B8090020FF3F00F0094B1960A2
:101F30005A6809491140802292020A435A605A683D
:101F4000920B92035A60402203680020FF335A71BB
:101F50007047C046B8090020FF3F00F00223026826
:101F600011780B43137002689378022BFCD07047F2
:101F7000F7B57D4E306802681378DB092ED1148CDA
:101F8000A1B28C4600292AD180270C005733FF3399
:101F9000958BC25A023BC35AADB213402B400093FB
:101FA0007F00724B6200D35A2B4202D03268126813
:101FB0009383009A13420ED06D49062C04D16D4BC9
:101FC0001B891B093B400B60230032682E339B00AA
:101FD0009B58100098470134072CE2D1F7BD070049
:101FE0005937FF37614601241941DDB2214200D142
:101FF000B4E01C00083461015118CE1DC979019666
:102000003E7A0094C9B23C780E40264060242142BA
:102010001BD0590152184021FF32147A0C420ED0C5
:102020001172802252421543534A95716022164222
:10203000D4D01B01C318E0331B684F491CE020219A
:10204000147A0C42F2D01172EEE71024214215D01E
:10205000019A1470C2186132FF3212782242BDD048
:10206000444A5901521852681B01C318920442494C
:10207000DC33920C1B680A809847AFE70C2421429E
:102080003DD0082759015218FF32147A3C421ED025
:102090001772384A063F5218917E394202D0917E1B
:1020A000B9439176802252421543334A9571009A82
:1020B000540102681419E279920700D58EE70C22C8
:1020C000164200D18AE71B01C318D833B4E70427AE
:1020D000147A3C42F3D01772264A023F5218917A82
:1020E000394202D0917AB9439172234A9571009A8C
:1020F000540102681419E279D207E0D56EE7890726
:102100002CD002215C011219FF32177A0F4213D032
:1021100011728022524218491543164A8D711419C2
:1021200062699204920C4A80B20700D156E70D33DF
:102130001B01C3185B6880E70127117A3942F3D08D
:1021400017720D490B4A8D71141962689204920C32
:102150000A8062681201920C8A80E5E70133013738
:10216000082B00D03EE739E7F0060020EC330000F2
:10217000F4060020B8090020F80600200022012300
:10218000027043708270C370704700000023F7B57F
:1021900004001700614A0D001360614A216010605D
:1021A0002022604901AEC8690243CA6101227370EE
:1021B000F37006333370310018205B4BB2709847D0
:1021C0000623310033701920574B98476A46BB7875
:1021D000694613700620554B9847554B0620984783
:1021E00001222B7813432B70AB78DB07FCD41F2123
:1021F000504A13685B0B0B408B4200D10523288D9E
:102200004D4E0B409B01304003432B8513689B0CC4
:102210000B401F2B00D1023B1F20298D034081431F
:102220000B4307212B851368DB0D0B408B4200D13C
:1022300003232A8D0B4041491B030A407F2113438E
:102240002B852B783A780B40D20113432B707A7888
:102250002B787E390A40033192008B433848134370
:102260002B706862FB78012B4FD1226808311389EB
:102270008B431381802200215200324B9847220069
:102280000021231D243202C39342FCD121000022ED
:10229000A4311A605A609A60DA6010338B42F8D128
:1022A0001A7023002100A5331A7000220133AE31C9
:1022B0001A701A7201338B42FAD1230022000021D6
:1022C000B833D43202C39342FCD1210000225531ED
:1022D000FF311A605A609A60DA6010339942F8D17F
:1022E000AA235B00E2520233E25223000022593358
:1022F0006134FF33FF341A701A7201339C42FAD1F1
:102300008022114B00201A60FEBD002BB2D10C259B
:1023100022681389AB4319431181ABE70007002002
:10232000F006002000040040C1280000E92700005A
:1023300035280000246080003FF8FFFFFF8FFFFF7B
:10234000B8090020D733000000E100E0094B19680C
:1023500000290BD1EFF31080074A002805D172B68F
:10236000BFF35F8F05490870012111701A680132AF
:102370001A607047040700200807002004010020AD
:10238000084B1A68013A1A601B68002B09D1064BEA
:102390001B78002B05D00122044B1A70BFF35F8F0E
:1023A00062B67047040700200807002004010020DF
:1023B000F7B50023012501AC124F210011206570F3
:1023C000A3702570B84780230F4E9B02B361210094
:1023D00011202570B84780239B02B3612100232080
:1023E0002570B84708239836336021001B202570DC
:1023F000B84708233360002321000F206570237045
:10240000B847F7BD0D2400000044004107B5802205
:1024100001AB1A700A785A704A789A708A78190053
:10242000DA70014B984707BDC128000002230B4A10
:1024300011680B431360802311689943084B89B2DC
:1024400099841021D8680842FCD091680020D96294
:1024500051689962126892B29A8470470C07002002
:102460000008004070B58478027845780120402645
:102470000540204080240849AD010B6AC001B343E8
:102480002B43A343034303200240044812020340AA
:1024900013430B6270BDC04600080040FFFCFFFF05
:1024A00010B5027A438992069B059B0D120C1A43C4
:1024B000134B5A6081884288C4790A438179214349
:1024C0000A4341780478C9010A431A60042C0DD1EB
:1024D000027B018A92060A43C1890A480904014025
:1024E0000A439A601A6814431C6010BD202CFCD16A
:1024F000028A9A6084221968D2000A431A60F4E7BB
:102500000C0700200000FF0310B5082806D800F0D3
:10251000A1FD1405050C0E1A07202300172010BD7D
:102520000223104A116A0B4313620020F7E70223CB
:102530000C4A91690B439361F7E70223094A118A18
:102540000B431382F1E70223064A918A0B439382DD
:10255000EBE7054B9847E2E70223044A11780B4367
:102560001370E2E7000800402D24000044080040FA
:10257000C2231E22F0B5334DDB003349AB604B68FC
:102580008BB093431A00042313434B600023202293
:1025900005A8438083714370073303733833C381C5
:1025A0002A4B02701A68920E3F2A00D1203A284B1B
:1025B00028491B689B059B0D8B4200D1264B43810C
:1025C0000823C371F8338380244B02720382244BA7
:1025D00098470123002601A88370224B467006709D
:1025E0009847214B06209847204B9847032302AC7D
:1025F0002100237002201D331D4F63606670267218
:102600006672B84702201B4EB0471B4B98471023F9
:10261000EA681A42FCD08023AA8C21001343AB84C1
:102620000025164B07221D725D729D720123280042
:1026300063602270237265706572B8472800B047E6
:102640000BB0F0BD00080040004000412460800055
:1026500028608000FF030000FF01000080BBFFFF37
:10266000A124000065240000092500008D2600003B
:10267000AD260000512700002D240000000400407A
:10268000014B5878C0097047000C00400823054AE8
:1026900091690B4393610123034A13701178194226
:1026A000FCD1704700040040000C0040F8B50C78E5
:1026B0004B782402060005000443002B02D080233F
:1026C000DB021C434B7A002B02D080231B031C43EC
:1026D0004B68012B12D95D1E1D400222002D06D031
:1026E0001D02802335439B0207E0013552009A42C8
:1026F000FBD380232D0235435B031C430B7A002B55
:1027000002D080239B031C430C4FB8470028FBD109
:102710000B4B98470B4B1E70B8470028FCD10A4B57
:102720009D601D00B8470028FCD180226B685202D2
:1027300013401C436C60054B9847F8BD8126000090
:102740004D230000080C0040000C004081230000D5
:1027500070B50500094CA0470028FBD1084B9847ED
:10276000084B1D70A0470028FCD18023064A5B025D
:1027700051680B435360054B984770BD812600009C
:102780004D230000040C0040000C00408123000099
:1027900010B504000E4B98470E4B0F4A1C700F4BA0
:1027A0000F4C588859880005114059805988000FEE
:1027B0002140598011008022D2015C881442FCD152
:1027C0005A8800020A4002435A80064B984710BDBF
:1027D0004D230000020C0040FFF0FFFF000C004002
:1027E000FFBFFFFF8123000010B50C78034B2402CC
:1027F00004439847024BA4B25C8010BD91270000AF
:10280000000C004010B50400064B9847064B074AE1
:102810001C7080235188DB010B435380044B984785
:1028200010BDC0464D230000020C0040000C0040CB
:102830008123000010B5014B984710BD052800000A
:10284000002330B5D4789C4217D11478802C03D063
:10285000802324065B02234302255478AC4306D12F
:102860009478002C24D18024A4022343416054781E
:10287000013C012C01D8114C2340A0248DB2E40569
:102880002C431C438462D0240D0C24062C431C438F
:102890008462D478002C0AD15B0303D59378012B92
:1028A00009D181615378013B012B00D8816030BD93
:1028B000C024E402D9E74161F4E7C046FFFFFBFF13
:1028C00010B503000A004409C1090020814202D169
:1028D0000449E00140181F210B401E399940024B6A
:1028E000984710BD00440041412800007047000097
:1028F00010B5044B9847044B9847044B9847044B3A
:10290000984710BD71250000B1230000ED2800009C
:10291000ED280000FEE700000F48104970B588421E
:1029200004D000230E4CCA18A2420ED300210D4B36
:102930000D4A93420DD37F210C4B0D4A8B4393607C
:102940000C4B98470C4B9847FEE7C558043315606D
:10295000E9E702C3EDE7C046203400000000002094
:102960000C0100200C010020F00B002000000000F2
:1029700000ED00E07D330000892F000010B51C4BF6
:102980001A6802321A60FA2219685201914224D957
:1029900008201849184A0B68D0679A7A52B2002A60
:1029A000FBDB02201A8882431A8080220B680821F0
:1029B0001A72C023114A5B00D150114B984772B66E
:1029C000BFF35F8F00220F4B1A70BFF34F8F0E4A79
:1029D0000E4BDA60BFF34F8FFEE7186832210C4BC5
:1029E0009847002903D180220A4B9202DA6110BD78
:1029F00028070020B80A002004E100E000E100E020
:102A00009D080000040100200400FA0500ED00E02C
:102A10009D310000004400410822074B10B51A60A8
:102A2000064B98470028FBD00822054B00201A606F
:102A3000044B9847C0B210BD9844004149050000BE
:102A4000944400415905000070B580240500064EED
:102A50002405B461054B98470028FBD07461280019
:102A6000034B984770BDC046004400415906000022
:102A7000E106000010B50C4B0C4A196891420ED8C3
:102A800010BD1A68824314801A6802321A601A68EC
:102A90000A42F6D1064A137DDB07FCD5F0E7012494
:102AA000FF2101206442F2E708010020FF3F0000FF
:102AB0000040004100231A0010B59CB2A04201D88A
:102AC000100010BDCC5C01336240F6E7F0B5C9B030
:102AD0006B46994A5079187001381C2800D923E1B7
:102AE00000F0CCFA1D0097006300220122018A0049
:102AF00022012201220122012201220122012201BE
:102B0000220197008200B600CC00EC0022012201D5
:102B10002201220122012201550022019B006A4666
:102B200000230B245370083393703933D37015335B
:102B30001371043B5371093B93710A33D371033B07
:102B400013720F3353722D3B93727C4E1B20B04790
:102B50007B4B270A1D782800B047F8B2B0471B23EB
:102B6000E0B25D40B0470E2065407D40EDB245408B
:102B70000027B047BBB29C4200D9D7E06946714BF1
:102B8000200098476840C0B2B04749B0F0BD00216E
:102B90006B4659700223527A04249B1A6A4ADB005E
:102BA0001A416B469A70D970CFE793796946002233
:102BB0004A70902B13D005D8802B09D0812B0CD0D4
:102BC000002306E0912B0DD0922BF9D1052300E0D4
:102BD00001236A4603249370B7E70223F9E703242D
:102BE0008C70B2E70423F4E700236A465370574A17
:102BF000574B1A600224A8E79379D1791B06090480
:102C00000B43517A127A0B4312021343514A5B0071
:102C1000136000236A465370ECE7517A0023302991
:102C20000FD16846C170D17A0222521A4649D200A9
:102C300011416A4643708370037141719371072497
:102C400083E76A4653709370D17013715371F5E73F
:102C50008022202580204049404B0C88D201FF353E
:102C6000C002197D198B294319839108013249004B
:102C7000FF32D9611C808242F3D1CAE79179D379BE
:102C8000344D09025B18286835499BB2884203D944
:102C900000210126994205D32A689B182B60314BED
:102CA0009847B6E75418277C2868E47B3F02081849
:102CB000E419B043A4B204800231EBE79379D279EE
:102CC0001B029B18684600224270224899B206688F
:102CD000234DCC1CA4B2AE420DD9030001268A427A
:102CE00011D31C4A1368C9182300116000226B44D9
:102CF000013B1A7029E7FF209A42F2D015006D447B
:102D0000A8700132F8E76F461868951C1018B04398
:102D100000887855186812182800B2431288684451
:102D2000120A42702A00DAE700240EE76B46D85DEB
:102D3000B04701371EE7C046D00A0020492A0000EC
:102D400026070020B52A000001981E004C1D000037
:102D50002807002008010020FE3300000040004149
:102D6000FF3F0000752A0000F8B500273C003D0039
:102D70001F4B98471F49060008550134062DF7D808
:102D8000280000F067F904080C11171C23001B2E03
:102D900028D10125ECE7184B02251E70E8E7174BF8
:102DA00036021E800325E3E7144A042513881E43D8
:102DB0001680DDE70E2E17D100270525D8E70F4B2B
:102DC00001371B889F42D3D10625D1E7013CA0B231
:102DD0000B4B98470024864207D10A4B1C600A4BD4
:102DE0009847F8BD0024C3E700242500C0E7C0468B
:102DF000192A0000D00A00202607002024070020FE
:102E0000B52A000028070020CD2A00000423094A23
:102E1000D1690B43D3612022074BFF32198B0A4340
:102E20001A831A7DD20703D51E215A680A405A60B8
:102E30007047C04600040040004000417FB50023B9
:102E40006A46164CD3701380937002930393013338
:102E500013711349134B200098470823124D226821
:102E60002B6021688B7A5BB2002BFBDB0226138878
:102E70000E4933431380200032000D4B9847310038
:102E800020000C4B9847012120000B4B9847C02293
:102E90009200AB581B021B0AAB507FBDB80A002042
:102EA00000140040390D000000E100E07D29000021
:102EB000310E0000650E00000D0E0000F7B5274B27
:102EC0009847274A01211300107D0842FCD068462C
:102ED0006D46244C2188018023490988418023487C
:102EE0000188A98022490988E9800725009929409D
:102EF000012930D0118BC9052FD480212026556897
:102F0000C90229435160118BFF3631431183194F98
:102F10001949D161178032001F3EFF3E1F7D3742A5
:102F2000FCD01E8B16431E83144ED9611E800126D1
:102F30001F7D3742FCD01F8B3A431A830722D96189
:102F400000994A4032430092009A2260019A02603E
:102F50000B4A1A805D600B4B9847F7BD4D2300006C
:102F6000004000410040800002408000044080009A
:102F70000640800005A5FFFF0020400044A5FFFF9C
:102F800006A5FFFF812300008022224B920210B58C
:102F90009A61802212059A6108221F4B1A601F4B0A
:102FA0001A7852B2002A03DB02211A788A431A7077
:102FB0001B4B1A78D20610D41B789B060DD48023A5
:102FC000DB011988174A914207D01A6882F30888F2
:102FD000154A9360154B1B6898470122144B1A70D1
:102FE000BFF35F8F62B6134B9847134B9847134B51
:102FF0009847134B9847C1218022124889004358B3
:10300000D2051B021B0A134343500F4B98470F4B2B
:10301000FCE7C046004400419844004100100040D5
:1030200038040040FFFF000000ED00E00440000015
:1030300004010020F12800003D2E00000D2E0000AC
:103040005108000000E100E0BD2E0000692D0000E5
:103050007047000002B4714649084900095C490004
:103060008E4402BC7047C04603B471464908400014
:103070004900095E49008E4403BC704703B47146A1
:10308000490840004900095A49008E4403BC704772
:10309000002243088B4274D303098B425FD3030A97
:1030A0008B4244D3030B8B4228D3030C8B420DD3AA
:1030B000FF22090212BA030C8B4202D31212090238
:1030C00065D0030B8B4219D300E0090AC30B8B4276
:1030D00001D3CB03C01A5241830B8B4201D38B0324
:1030E000C01A5241430B8B4201D34B03C01A5241C9
:1030F000030B8B4201D30B03C01A5241C30A8B420C
:1031000001D3CB02C01A5241830A8B4201D38B02F6
:10311000C01A5241430A8B4201D34B02C01A52419A
:10312000030A8B4201D30B02C01A5241CDD2C3090C
:103130008B4201D3CB01C01A524183098B4201D388
:103140008B01C01A524143098B4201D34B01C01A73
:10315000524103098B4201D30B01C01A5241C308EB
:103160008B4201D3CB00C01A524183088B4201D35A
:103170008B00C01A524143088B4201D34B00C01A46
:103180005241411A00D20146524110467047FFE7B2
:1031900001B5002000F0F0F802BDC0460029F7D0CC
:1031A00076E7704703460B437FD4002243088B42E7
:1031B00074D303098B425FD3030A8B4244D3030BBE
:1031C0008B4228D3030C8B420DD3FF22090212BA83
:1031D000030C8B4202D31212090265D0030B8B42FF
:1031E00019D300E0090AC30B8B4201D3CB03C01AE9
:1031F0005241830B8B4201D38B03C01A5241430BC4
:103200008B4201D34B03C01A5241030B8B4201D3B3
:103210000B03C01A5241C30A8B4201D3CB02C01A1E
:103220005241830A8B4201D38B02C01A5241430A96
:103230008B4201D34B02C01A5241030A8B4201D385
:103240000B02C01A5241CDD2C3098B4201D3CB012C
:10325000C01A524183098B4201D38B01C01A5241DB
:1032600043098B4201D34B01C01A524103098B42DF
:1032700001D30B01C01A5241C3088B4201D3CB00CA
:10328000C01A524183088B4201D38B00C01A5241AD
:1032900043088B4201D34B00C01A5241411A00D25D
:1032A00001465241104670475DE0CA0F00D04942C6
:1032B000031000D34042534000229C4603098B4236
:1032C0002DD3030A8B4212D3FC22890112BA030ABE
:1032D0008B420CD3890192118B4208D38901921140
:1032E0008B4204D389013AD0921100E08909C309C5
:1032F0008B4201D3CB01C01A524183098B4201D3C7
:103300008B01C01A524143098B4201D34B01C01AB1
:10331000524103098B4201D30B01C01A5241C30829
:103320008B4201D3CB00C01A524183088B4201D398
:103330008B00C01A5241D9D243088B4201D34B00B3
:10334000C01A5241411A00D20146634652415B10F5
:10335000104601D34042002B00D5494270476346D6
:103360005B1000D3404201B5002000F005F802BD1B
:103370000029F8D016E770477047C04670B50026A0
:103380000C4D0D4C641BA410A64209D1002600F080
:1033900037F80A4D0A4C641BA410A64205D170BD33
:1033A000B300EB5898470136EEE7B300EB58984767
:1033B0000136F2E70C3400000C3400000C3400003D
:1033C00010340000002310B59A4200D110BDCC5C2F
:1033D000C4540133F8E703008218934200D17047C8
:1033E00019700133F9E73030393600000400080065
:1033F00070008000010000010002030C106002A5B3
:10340000F8B5C046F8BC08BC9E467047D90000001D
:10341000F8B5C046F8BC08BC9E467047B100000035
:10342000610100002D010000E10100005D010000CC
:1034300000000000690400003D0100005901000087
:103440005D010000510300000003000000000000C7
:10345000000000000000000000000000000000006C
:10346000000000000000000000000000000000005C
:103470000000000000000000000000000403090438
:1034800047696D61736920534120287777772E67EC
:10349000696D6173692E636829005475696E6F20C8
:1034A00030393600DC00002090000020F0000020C1
:1034B00098000020FC00002009024300020100C027
:1034C0003209040000010202010005240010010479
:1034D00024020205240600010524010301070583D7
:1034E0000340001009040100020A000000070581E2
:1034F0000240000007050202400000001201010224
:103500000200004016319600000101020301000094
:10351000050F0C000107100202000000000000204F
:0C3520001400002001000000004000002A
:0400000300002919B7
:00000001FF
